:020000040800F2
:10000000B8080020850100088B3100083D2F00084A
:1000100000000000000000000000000000000000E0
:100020000000000000000000000000008F31000808
:1000300000000000000000008D3100089131000830
:100040009701000897010008970100089701000830
:100050009701000897010008970100089701000820
:100060009701000897010008970100089701000810
:100070009701000897010008970100089701000800
:1000800097010008393200089701000800000000BD
:1000900097010008970100089701000897010008E0
:1000A00097010008970100089701000897010008D0
:1000B00097010008970100089701000897010008C0
:1000C00000F002F800F04EF80CA030C808382418F0
:1000D0002D18671EA246AB4654465D46AC4201D180
:1000E00000F040F87E460F3EB6460FCC0126334264
:1000F00000D0FB1A3343A246AB461847303E0000FF
:10010000503E0000103A02D378C878C1FAD852079E
:1001100001D330C830C101D504680C6070470000BD
:100120000023002400250026103A01D378C1FBD813
:10013000520700D330C100D50B60704710B5662957
:1001400002D103F067FE10BD002010BD1FB500F006
:1001500047FF04000020002103F040FDE0601FBDC8
:1001600010B510BD01F00AFB1146FFF7EFFF03F0D9
:10017000BDFB01F022FB03B4FFF7F2FF03BC01F06B
:1001800069FB00000748804707480047FEE7FEE795
:10019000FEE7FEE7FEE7FEE704480549054A064B91
:1001A0007047000035320008C1000008B802002086
:1001B000B8080020B8040020B8040020FEB50446AA
:1001C00010460D46184373D0A6468C460020A41A4C
:1001D00001469D4167D36646002701243D46B61A75
:1001E0009D4102D313463A462124654676462F04A4
:1001F000360C3E432D0CB61A9D4104D3150C1B043E
:100200002B4312041034654676462F06360A3E43C9
:100210002D0AB61A9D4104D3150E1B022B43120260
:100220000834654676462F0736093E432D09B61A2F
:100230009D4104D3150F1B012B431201241D65465C
:100240007646AF07B6083E43AD08B61A9D4104D3C3
:10025000950F9B002B439200A41C65467646EF0742
:1002600076083E436D08B61A9D411AD392185B4139
:10027000641C16E00018764665464941B71A9D4150
:100280000191009009D36046B11A98418E46844688
:10029000009801990025401C6941DD0752082A4356
:1002A0005B08641EE6D57246634603B0F0BDFFE707
:1002B0002046284307D00020C0430146C046C04620
:1002C00022462B46F1E700200146F7E70FB41CB5A4
:1002D0000C0007AA009007D04142A14202D30019A6
:1002E000401E01E00020C043074B7B44694601905B
:1002F000069800F012FE0020002C01D00099087032
:100300001CBC08BC04B01847530C0000F3B50446ED
:10031000002081B020622046E168884700287AD01A
:10032000252802D06268A16871E0E16820460025B6
:10033000884706460020E0610746A0612A2E0AD0C1
:10034000304603F02DFC002827D0B8000019303EBD
:100350000090866119E00298BA00121902C89161F2
:1003600002902046E1688847012F064617D1E069D0
:1003700000281FDA202085431CE000980A218069AC
:10038000484300998019303888612046E1688847E1
:10039000064603F005FC0028EFD1012F0AD02E2ECF
:1003A00008D12046E16888470646202005437F1C87
:1003B000022FC3DBA069002803DA4042A0610120BC
:1003C0000543E80701D010208543002E23D0304696
:1003D0004138192803D80120C002054320362046A1
:1003E00025603146029A1546FFF7A8FE00280BD07B
:1003F000012806D0ED1DE808C000083002908AE709
:1004000009E02D1D029586E762683046A168904795
:10041000206A401C7EE7206AFEBD000030B5441C07
:1004200003E00178401C00290DD08107F9D10B4B66
:10043000DD0104C8D11A91432940FAD0001B0A06F5
:1004400003D0C01E30BD001B30BD0A0401D0801E89
:1004500030BD0902FCD0401E30BD00000101010189
:1004600001E004C0091F0429FBD28B0701D50280DB
:10047000801CC90700D00270704700290BD0C30749
:1004800002D00270401C491E022904D3830702D502
:100490000280801C891EE3E70022EEE70022DFE7EE
:1004A000002203098B422CD3030A8B4211D3002371
:1004B0009C464EE003460B433CD4002243088B424B
:1004C00031D303098B421CD3030A8B4201D39446D8
:1004D0003FE0C3098B4201D3CB01C01A52418309CB
:1004E0008B4201D38B01C01A524143098B4201D385
:1004F0004B01C01A524103098B4201D30B01C01AB0
:100500005241C3088B4201D3CB00C01A5241830829
:100510008B4201D38B00C01A524143088B4201D356
:100520004B00C01A5241411A00D2014652411046B6
:1005300070475DE0CA0F00D04942031000D340422B
:1005400053409C46002203098B422DD3030A8B4261
:1005500012D38901FC2212BA030A8B420CD38901FF
:1005600092118B4208D3890192118B4204D38901E5
:100570003AD0921100E08909C3098B4201D3CB0123
:10058000C01A524183098B4201D38B01C01A5241D8
:1005900043098B4201D34B01C01A524103098B42DC
:1005A00001D30B01C01A5241C3088B4201D3CB00C7
:1005B000C01A524183088B4201D38B00C01A5241AA
:1005C000D9D243088B4201D34B00C01A5241411A81
:1005D00000D201465241104663465B1001D34042AF
:1005E000002B00D54942704763465B1000D3404260
:1005F00001B50549002802DC491C084000E0084616
:10060000C046C04602BD00BFFFFFFF7F7047704776
:10061000704700000246C80FC00781434B0030B549
:100620004B405B009B0D20D01923DB06C91801232A
:100630001B05994220DB0324A40704251346AB4085
:100640000BD3002B04D1EB0613409B00E34204D4F0
:1006500001246407002312195941FF231B05994205
:100660000BD2C9000143500F09E0CB0204D501436E
:100670000803024305D0054830BDFF21C9050843E2
:1006800030BD084607210905884330BD0000C07F02
:100690001F22030C02D10F22000402D0030E03D04C
:1006A00004E00020014670470002083A030F01D120
:1006B0000001121F830F01D18000921E002801DB70
:1006C0004000521E120551184205C0124118104632
:1006D0007047C10FC90700D0404201229207114361
:1006E000D6E701218907D3E7F0B58B4C0F092546E2
:1006F00089B0BD437BD01D092646AE43FAD00E46D5
:100700005E402740F60F3E43254071D02401214230
:10071000FBD0FF24AD19A4042D1B039501252D0545
:10072000DB02DB0AC9022B43C90A29431E01090166
:10073000040F130F050121431701880B8203914316
:100740002D098C46A90B1E438A039543B30B9A03CC
:1007500096433F09BA0B9403A74302962E467E4365
:100760000497B6464E19D7190C460196544305977F
:100770007E43371B7646BF1B3601B646BE0B361985
:1007800000967646BC043719009C01D3641C009483
:100790006400002F01D001263443029E049F75435C
:1007A00066467E430496760034196E003419009430
:1007B000029C019E1C196643751BAE460694654655
:1007C0004519059C05956C43594375460891691A6E
:1007D0000191049E01465143A41B0491611A009C9F
:1007E0000791E10605D061090122114302E072E0A0
:1007F0006EE06109089D00272C0A2D066918049DEA
:100800007C412A0A2D066918019D6241AC0DAD029A
:100810006D185441079A910D920255196141029A3F
:10082000644658435443069B059A5A43121A131BB5
:100830009A0E9B015B187A41010B0005C3185141C8
:10084000220A200644195A419A4200D2491C01202A
:100850004002814203D315230226F64302E014230B
:100860000326F6432020C51AA9401746AF40DA40B8
:100870000A4320460399D8400914731819055118E2
:10088000039A3843D2075140AC4009D0012294402A
:1008900006D30022401C5141002C01D140084000E9
:1008A0001E4A934212D3012203989206904207DB1C
:1008B0000520400709181A480143C012414004E0CE
:1008C000032040070818C10FC907002009B0F0BD78
:1008D0000020F107FAE705180C464C4111486D421B
:1008E000A04115D394181A465A410E4864429041CB
:1008F0000ED301204A004005824209D35A008242A9
:1009000006D35940C90F084AC90700201143DDE743
:1009100000200649DAE700000000FF07FE0700009C
:10092000FFFFFF7F0000E0FF0000F07F0000F87F86
:100930000121C9050123411842001B06D3185B0E93
:100940000AD0C1100722D206891840075242D1426C
:1009500001D5520089187047090208D50146002ABE
:1009600003D0C10FC90700207047104670474202EC
:1009700002D0002002497047072109050143F4E72E
:100980000000F87FF0B5FF252D04C609C209FF2736
:1009900004462E400137CB093E4348402A402B40B5
:1009A0000746002A6BD0002B69D0AA4267D0AB4221
:1009B00065D0002800DA32460125ED0529432C4395
:1009C00009022002090AD21A4B0C7F24E31A434C75
:1009D000000A7C44E35C7D242404121914145B0097
:1009E000A218884201D3521C00E0400049420C4644
:1009F0005C4324115C43DB016415E318040A5C4387
:100A0000C502200D0C4644436419250A5D432303A7
:100A1000EC0C0D46654300030019EB184C42A34251
:100A200001D35B18401CD4052018002B07D05B00B5
:100A3000C91804D3401C002901D1400840003F21BF
:100A400089048A4209D3002A08DC1106090F04D060
:100A5000032149074018C00FC007F0BD0122410023
:100A6000120689187F2252069142F6D205214907C3
:100A7000C84201D59010F0BDFF20C005F0BD002F89
:100A800000DA32461648AA4207D2AB4205D2190212
:100A9000090E17D0F80FC007F0BDFF2563002D0623
:100AA000AB42F9D84900A942F6D8AB4201D1A942DC
:100AB000F2D0A94201D1002101E061004908D0052E
:100AC0000843F0BD1102090EFBD0FF200243D00500
:100AD000F0BD0A460146104654E700004E340000BF
:100AE0000000C07F10B500F07FFA006810BD10B59F
:100AF000044600F079FA046010BD0000FFB50C4612
:100B00001E468FB003CA089009914F007D0D00D199
:100B10006D1E002108460020C0460321099A890560
:100B20000840002A03DA8200801840080840800D3F
:100B300001280A9002DD0020C0430A90089807436C
:100B40000DD0F048F0492818484307141898002899
:100B50001DD07542291E1DDD0A9842421BE01898DF
:100B6000012802D00020302104E00020F24305E0FB
:100B70002154401CB042FBDB30460022189B002170
:100B800021540F998B600A60486013B0F0BDBD1B03
:100B90006D1CDFE70A9A002900DA69420BA800F011
:100BA000A9FA0BAB07CB03AB07C30899099800F070
:100BB0000DFB6B4607C30146D4480918002D009170
:100BC0000BDDD24903980A9A49424018002303A931
:100BD0000390684600F06AFD08E003990A9A002332
:100BE000081803A90390684600F00AFD6B4607C386
:100BF0000004000C03D00020C043410800E0104670
:100C0000189A002A03D00022009215461EE0751E95
:100C100005D400F0EDF9303262556D1EF9D5012290
:100C20000843079602D000227F1C04E02078302879
:100C300001D100227F1E002A069787D01EE0112DC9
:100C400007DA00F0D5F9303262556D1C02460A43CE
:100C5000F5D1084303D00098002819D00EE00021F8
:100C6000681E05E0235C625C63542254401E491CEC
:100C70008142F7DBA81B401E07950690079A18993A
:100C80000020A0540F98079B069A81600CC07CE757
:100C900011260020189059E7D21DF0B50D460446E4
:100CA000D10893B0C90003C90C900D9102F062FF06
:100CB00002460D98C00F01D02D2007E02068810763
:100CC00001D52B2002E04007C00F4001032A0F90FE
:100CD00001D0072A05DB03462946204600F0C6F965
:100CE0000EE12078800601D5E76900E00627284656
:100CF000652D04D0662814D0672D69D12DE0002021
:100D0000112F009001DB112300E07B1C0CAA03A92A
:100D100010A8FFF7F3FE1199002610987D1C0E9184
:100D200042E001203B460CAAC0070B900120009036
:100D300003A910A8FFF7E2FE119D12981099002652
:100D400000280E9501D1781C0D18781B02D446425C
:100D50007D1C761EE81B00903AE0012F00DA012787
:100D60000020112F009001DD112300E03B460CAA6A
:100D700003A910A8FFF7C2FE11993D46109800265E
:100D80000E91217809070BD40E99A94200DA0D467D
:100D900003A9012D04DD4A19203AD27F302A06D05A
:100DA000B84201DA011D04DA012100910FE06D1E45
:100DB000EFE7002802DC86192D1A03E0411CA94246
:100DC00000DD0D46801B401C00900120C0070B90E9
:100DD0002078000705D40098A84202DB0020C04319
:100DE000009069460020C8720B98012102AF0337BA
:100DF000C907884225D0022010902B2011900B9813
:100E000000280BDA40420B902D20119006E00B9841
:100E100000F09CFC30317F1E0B9039701099481EF9
:100E200000291090F3DC0B980028F0D111987F1E58
:100E300038702088000501D5452000E065207F1E20
:100E4000387001A8C01BC01D0B900F98002800D05F
:100E5000012041190098C01709180B980818A169BA
:100E6000081A401EA0612078C00602D42046C04661
:100E7000C0460F98002805D06268A1689047206A94
:100E8000401C20622078C00625D52046C046C046BA
:100E900021E0002E07DB0E98B04204DD03A8626853
:100EA000805DA16802E06268A16830209047206AF6
:100EB000761C401C20620098401E002800900AD139
:100EC00000F08EF8C06862680168405CA1689047D5
:100ED000206A401C206228466D1E0028D9DC07E0ED
:100EE00062683878A1687F1C9047206A401C2062A5
:100EF0000B99481E00290B90F2DC2046C046C046E4
:100F0000032042E601FCFFFF104D0000E1DFFFFF80
:100F100001694A1C02610878704700B58FB00291E0
:100F200000210591054901937944039111460490EC
:100F30006846FFF7EBF90FB000BD0000E5FFFFFFCB
:100F40000CC908399A4202D2531C0B6010707047CA
:100F500030B5C30D1906214A090E31D0FF292FD013
:100F600000283ADB01025002014301207D33C340D7
:100F700000D24908012080071724091A24064908CD
:100F800082102343FF252D064C00211A04D4891A10
:100F900002D45400201800E0214652085B19F3D512
:100FA0001A220446944007D382068A4203D1802144
:100FB0008030884300E08030C009D905081830BD72
:100FC000FF2904D04100FAD0C00FC00730BD410254
:100FD00001D0104630BD0028FCDAFAE70000C07FDF
:100FE0000048704730000020004870471000002083
:100FF0000B4670B5024689078008084319469D08CC
:10100000141AA94125090807054308092C19484164
:10101000250A01060D43010A2C194141200C0D043B
:1010200028430D0C00194D41002140194D41C008C5
:1010300069070843E908840F8D00254384002418BC
:101040004D4124196D41121BAB4107E00925ED43C9
:101050002C11521963410024401C61411C460A2591
:101060000026551BB441F1D270BD0000F8B51F46F3
:10107000044601230068DB02032601461840072AC4
:1010800005DB002801D017A506E017A504E000281D
:1010900001D016A500E016A5102081432160A069AB
:1010A000C01E002FA06101D0401EA0612046C04696
:1010B000C046002F09D038466268A1689047206A70
:1010C000401C2062C01C206206E0206AFAE76268C9
:1010D0002878A1686D1C9047761EF8D22046C0463D
:1010E000C046F8BD4E414E006E616E00494E46004E
:1010F000696E6600F7B516468AB0334878446C4688
:1011000003467C33C06F5A689B680DC42E487844F0
:10111000763003AC0DC80DC43720C0010818372144
:101120001B30FFF7C7F905460C46803D1B3C02D536
:101130006442012000E000200027099010E0E00751
:101140000CD00C2020497843794432464C39411860
:101150006846012300F054FA6B4607C364107F1CF5
:10116000002CECD1184F7F442E3F16E0E80712D038
:101170002001C0190EC80691089307920068F0423A
:1011800001D1981908903246012306A903A800F05E
:1011900037FA03AB07C36D10641C002DE6D1099824
:1011A000002806D032466946012303A800F07EFAE3
:1011B00005E001233246694603A800F021FA0A9BA4
:1011C00007C30DB0F0BD0000642D000003464000D1
:1011D0000A4610B5400D0BD00121C9070F24A40207
:1011E00000191C0364082143540D2143D20207E077
:1011F00000210120F2E7D40F490021435200401E94
:101200000029F8DADB0FDB07184310BDFFB50D46E8
:10121000144685B04868516802F094FC0091019032
:10122000A868A16802F08EFC02910390A86861682A
:1012300002F088FC029A12188242029201D2012026
:1012400000E00020019A0B18D2180028019202D069
:101250008A4202D903E08A4201D2012000E0002044
:101260000099081800906868A16802F06BFC029A67
:1012700012188242029201D2012000E00020019A5D
:101280000B18D2180028019202D08A4202D903E03A
:101290008A4201D2012000E0002000990818009045
:1012A0002868216840004900400849084018FA4968
:1012B000471814E001994000C90F084300900198B5
:1012C00002994000C90F0843019002980399400019
:1012D000C90F08430290039840007F1E03900098B6
:1012E0000028E7DA0898002801D0EC4E00E000263C
:1012F000B74201DA012000E00020002804902AD043
:10130000F71BF806C00E15D0029B2021091A039A7C
:101310008B401A430392029A019BC2408B401A43AE
:101320000292019A009BC2408B4000991A4301929D
:10133000C14000917B110DD06F460320C11A03D527
:1013400000218200B95003E08A008100BA587A5027
:10135000401EF3D5374603980299002800D001209B
:10136000014308980291002808460CD0002800D0BC
:1013700001200199019A490508430121D20AC902B5
:10138000D202019200E001210E9B0122D207012B23
:1013900002D0002B03D013E0002807D120E09042B8
:1013A00004D890420CD1019B0B4209D0019B5918E3
:1013B000019105D10099491C009101D17F1C009237
:1013C00000280DD0102108460020C04604980028AF
:1013D00006D00F98002803D0082108460020C046F8
:1013E00028682168019B009A4840C10F0598C907E9
:1013F00039430EC009B0F0BDFFB587B0099A08980F
:101400000899536892684068896896460022039359
:1014100017469446089A12685300099A5B081268A6
:10142000520052089A1A9E4BD4180A9A002A01D0E8
:10143000352200E040220692002201231546049244
:10144000DB07059324E0002D05D175460346039E76
:101450004D1BB34109D375466646039B491B049D4A
:101460009841059B7519AC465F4163463B4308D0E4
:10147000059B049EDD0776082E435B0804960593C2
:1014800001E0521E641EC50FED0749184041521C71
:10149000069B9A42D7DB002D04D17546039A6B1A3E
:1014A000824101D203200CE0039A0B466B4042407C
:1014B000134303D0014303D0012002E0022000E0E7
:1014C0000020614601910021009702910A990029AC
:1014D00005D0614640020143704B019102E0800754
:1014E000002302909C4201DA012000E00020070066
:1014F0003AD01A1BD006C00E15D0029D2021019CA7
:10150000091AC5408C402543029C8C4000D0012420
:101510002543019C0295009DC4408D4000992C43B9
:101520000194C140009154111DD06D46022100224A
:1015300002290CD10320001B07E0002804DB8600F1
:10154000AE59002E00D00122401C0328F5DB081BF9
:1015500002D588002A5004E08000285810438A00F1
:10156000A850491EE3D51C460A98002802980CD0C2
:10157000002800D001200199019A49050843012162
:10158000D20AC902D202019200E00121109B01227D
:10159000D207012B02D0002B03D013E0002807D183
:1015A0001FE0904204D890420CD1019B0B4209D01D
:1015B000019B5918019105D10099491C009101D155
:1015C000641C009200280CD0102108460020C04660
:1015D000002F06D01198002803D0082108460020CB
:1015E000C04608980999019A009B0068096848401C
:1015F000C10F0798C907214382600AC00BB0F0BD34
:1016000000B585B0019300920A460146002302A866
:10161000FFF7FCFD02A807C805B000BDFFB50A46EC
:101620001F4685B00799019301230091014602A846
:10163000FFF7ECFD02990398049ECA0F4900D207F8
:1016400000920F22490892028C1A0021002800DB28
:101650000C46450013486D08844214D3079A002AAB
:1016600004DA441E0026104DF64302E004460D46FF
:101670000E46102108460020C046002F03D004214A
:1016800008460020C0462005E90A0843009908439F
:101690006905F20A1143ADE602C0FFFF013C0000FC
:1016A000FF3F0000FF070000FFFFFF7F00B585B090
:1016B000019300920A460146002302A8FFF79CFE10
:1016C00002A807C8A8E7FFB50A461F4685B00799D4
:1016D000019301230091014602A8FFF78DFE0299B4
:1016E0000398049ECA0F4900D20700920F224908AE
:1016F00092028C1A0021002800DB0C46450011489C
:101700006D08844214D3079A002A04DA441E002686
:101710000D4DF64302E004460D460E4610210846E4
:101720000020C046002F03D0042108460020C046F8
:101730002005E90A0843009908436905F20A1143A4
:1017400058E60000FF070000FFFFFF7F014680080A
:10175000081A02091018020A1018020C1018C00802
:10176000820012185200891A01E0401C0A390A2925
:10177000FBD2704700487047100000207546FFF705
:10178000F9FFAE46050069465346C008C0008546CD
:1017900018B020B5FEF700FD60BCB6460026002755
:1017A000C0C5C0C5C0C5C0C5C0C5C0C5C0C5C0C511
:1017B000403D490849008D46704710B50446C04673
:1017C000C0462046FEF7D7FC10BD0000024670B5AB
:1017D0000A4392072AD11E4DEE0104C808C9541BC2
:1017E0009443344017D0D0B2D9B2401A21060143F5
:1017F00010D190B299B2401A210401430AD11002CB
:101800001902000A090A401A2102014302D1100EEE
:10181000190E401A70BD9A42DFD010BA19BA884228
:1018200001D9012070BD0020C04370BD02780B7843
:10183000401C491C002A09D09A4207D102780B7833
:10184000401C491C002A01D09A42EFD0D01A70BD2A
:101850000101010101491820ABBEFEE7260002008C
:1018600070470000F0B58AB0019009910A68002A1B
:1018700000D1AFE05848019B834201D0062000E030
:1018800005200B2109075B180A21CB410093052B8A
:1018900000D3009000263546344601210846A0407A
:1018A000024000D18CE00294049205910895032532
:1018B0002946B140CA43099934464E6833462B4005
:1018C0005F1E012F07920696039410D80F460199C8
:1018D0008D681540FF68A7402F438F60F506ED0F18
:1018E000029CA5404F6887432F434F6008E0032BBD
:1018F000029C05D12B46019F089D049A039E22E07D
:10190000019FF8680799084009998D68039EB540C2
:101910000543FD60022B089D049A14D11C20284029
:101920000F218140E3089B00FB1806931D6A8D433D
:10193000099B196981402943089D069801625868EE
:10194000032306900340B3403868079908401843C2
:10195000386006988003800F059B31D020490868C5
:10196000184308600C2028400F218140032325469E
:101970009D431C4FEB598B43009981401943E9511A
:10198000164FB96809984068C30201D5114300E0B9
:101990009143089DB960F968830201D5114300E0C5
:1019A0009143F9607968830301D5114300E09143C5
:1019B00079603968C00301D5114300E09143396073
:1019C000641C099802681046E040B61C2D1D0028D2
:1019D00000D062E70AB0F0BD001C005000040140D6
:1019E0003410024008000140014800687047C046BA
:1019F0008C020020B0B50246034640335C780220DA
:101A0000202C17D11C78012C14D024205870106879
:101A100002680124A2430260220305689543056021
:101A200002680A43026001682143016000201870C7
:101A300020215970B0BDB0B50246034640335C78F2
:101A40000220202C17D11C78012C14D0242058708F
:101A5000106802680124A24302600F221202056886
:101A60009543090229430160016821430160002078
:101A7000187020215970B0BDF0B581B0002822D077
:101A80000446054640356878002804D100202870B7
:101A9000204600F0EFF924206870206802680121D8
:101AA0008A4302600F2212066368934303618368CE
:101AB000184A13408360A368E668012E05D1CE035F
:101AC0003343836009E0012022E02127BF023B432A
:101AD0008360022E01D1CB02436043680E4E1E4349
:101AE0004660C3681340C360226963691343A269F7
:101AF00012021A43C260E269236A13430360026858
:101B00000A43026000206064202169702063A8708D
:101B100001B0F0BDFF7FFFFF00800002F0B585B08F
:101B20001F4605460446403463780220202B14D11A
:101B30002378012B11D00192039101262670FFF723
:101B400053FF04900090F103192328460296324671
:101B500001F078FA002802D0029805B0F0BD2120EB
:101B600060701020A070002068646F850199696220
:101B700001906863688D000AB74BB84808D0039994
:101B800019402A6853680340171DFF2237480AE0AE
:101B90006A8D2E687168014003981840D3B21B0407
:101BA0001B18371D30480A9E1943014339602A85A6
:101BB000688D0028049A43D00398A74908400390F1
:101BC000A94F2846314601F0ABFA0028C4D1286855
:101BD000696A0A788262688D401E6885481C68625E
:101BE000288D401E2885698D002925D0000423D129
:101BF00004980090802100222846334601F022FA02
:101C00000028A9D1688D000A07D0FF2028852968FF
:101C100048683840091D954A0AE0688D288529687A
:101C20004A683A40C0B20004104301225206091D1E
:101C3000039B184310430860688D0028049AC0D1A4
:101C40002846314601F03AFA0028029885D12868E2
:101C50002021C1614268864B134043606170019846
:101C60002070A07079E7C046002000020020FF012C
:101C7000F0B589B00446403465780227202D50D154
:101C80000E9E002E4AD00F9D002D47D00693059240
:101C90002278012A45D00890012727700791FFF785
:101CA000A3FE04900090F903192308983A4601F026
:101CB000C9F9079A089B002833D110992220607037
:101CC0004020A07000275F645D855E625F636248AC
:101CD00002400698C0B20004079280181E6872681D
:101CE0005E4D2A40801801220292520380187060D3
:101CF00018460391049E32461D4601F011FA002851
:101D00002ED1324601972B680698012828460BD120
:101D100015460599C9B29962039B17E001277A021B
:101D20004264384609B0F0BD0599090A9962039EDC
:101D30003146154601F0F4F90028019F10D1089AA8
:101D400010680599C9B28162104633462E46009547
:101D500040210022054601F075F90028019F02D0BC
:101D60002770029FDDE73146688D000A2F46354611
:101D700007D038684168394A1140021DFF20394BAD
:101D800009E0788D3A68536834490B40C1B20904C0
:101D90001943121D324B1943079B194311603885B3
:101DA00000950421002638463246039B01F04AF98B
:101DB0000028D6D1786A3968496A0170788D401E4A
:101DC0007885786A401C7862388D421E3A85798D14
:101DD000002927D0110425D1009580210022384602
:101DE000039B01F02FF90028BBD1788D000A08D0A1
:101DF000FF203885396848681B4A1040091D1B4A76
:101E00000BE0788D388539684A68174B1A40C0B2A4
:101E10000004104301225206091D079B104318437A
:101E20000860089F798D0029BAD1384603992A465F
:101E300001F044F908990028029F00D071E7086872
:101E40002021C16142680A4B1340436061702670D3
:101E5000A670374665E7C046FF030000009800FC07
:101E6000002400020024FF01009C00FC0000FF0190
:101E700000E800FEF0B587B0044602A81421FEF782
:101E80000DFB2068274C2849884218D027498842F2
:101E900045D1206802210843206020680840019055
:101EA0000420069000200490122003900320059047
:101EB000000202900198012045051E4829E0206893
:101EC00004210843206020680840019001982068A0
:101ED00001252843206020682840019007200090B9
:101EE000069003270597002404941226039668029F
:101EF000029001980E4802A9FFF7B4FC00980690E2
:101F000005970494074C039628020290AD0705201C
:101F1000000702A9FFF7A6FCE0682843E06007B0CD
:101F2000F0BDC0462C100240007800400054004034
:101F300000080050000400501D48007802490A685B
:101F4000101808607047C0468C02002010B5084881
:101F5000016840220A4302600024204600F00AF88B
:101F6000002801D0012401E000F028F8204610BD2F
:101F700000200240B0B504467D20C0000C4909781D
:101F8000FEF78EFA01460B480068FEF789FA00F06A
:101F9000EDFC0125032C09D8002807D10025E843D2
:101FA00021462A4600F022F8034804602846B0BDC6
:101FB0000400002000000020080000200448016800
:101FC000012211430160110742680A4342607047D1
:101FD00034100240002805D41F210840012181400F
:101FE000014801607047C04600E100E0002805D4C8
:101FF0000322034693430A4A9A1803E00C22024044
:10200000064BD2188007C00E8901C9B28140FF2358
:1020100083401068984308431060704714ED00E057
:1020200000E400E0F0B587B0066801252F02EA025F
:10203000114620317A4B0E4200D1A0E00492069066
:102040002907986B0840039002D1986B0843986366
:102050000191744C206838420FD1206838432060C9
:10206000FFF7C2FC06462068384206D1FFF7BCFCE9
:10207000801B6428F7D90325BFE0029703263705A4
:10208000F34C21683940069B586802463A40009656
:10209000340491420AD19A683A4091423E46EC4B50
:1020A0000ED001462140A14206D009E00146214060
:1020B000A1423E46E64B03D11968890300D59CE056
:1020C000196D05942140029F21D0059A104081424C
:1020D00003D00698007880060AD406988068059A8E
:1020E0001040814213D006980068049908420ED02F
:1020F000D74B186DE9041A6D0A431A651A6D8A43A5
:102100001A650146059A91431965384278D13546DA
:102110000698066804990E42CD4B13D0826811468A
:10212000059C2140A1420AD12A4003231B05C8482F
:1021300004689C4306981443C54A1460C44B1A6D46
:102140000A431A65B10613D542681146059C214021
:10215000A1420AD12A4003231B05BD4804689C43C1
:1021600006981443BA4A1460B94B1A6D0A431A65AB
:102170000399002903D1996B019A91439963F1075F
:1021800005D0D96C03229143C2680A43DA64B107CF
:1021900005D5D96C0C22914302690A43DA647107B0
:1021A00006D503218902DA6C8A4341691143D96457
:1021B000310706D503210903DA6C8A43816911438B
:1021C000D9643E4206D003210904DA6C8A43C1690E
:1021D0001143D964710606D501218906DA6C8A4358
:1021E000416A1143D9640025310606D503218A04CA
:1021F000D96C9143006A0843D864284607B0F0BD03
:10220000FFF7F2FB05466B4C9148006D800500D549
:102210007DE7FFF7E9FB401BA042F5D9009DECE705
:102220000010024000700040F0B583B0002844D098
:102230000E4602905E480068012101910840B042BC
:1022400014D25B4908680125A84330430860594C03
:10225000FFF7CAFB0746564800682840B04205D041
:10226000FFF7C2FBC01BA042F5D924E0029C206806
:1022700081075E4D05D52968F0229143A2680A4383
:102280002A60C0071BD12F46494801680120014040
:10229000B14220D9464A116881431160454CFFF78D
:1022A000A3FB054642480068C00714D0FFF79CFB1B
:1022B000401BA042F6D9032061E001205FE0626884
:1022C00029460C39012A2AD0032A2BD0022A2CD1E4
:1022D000096889032BE0029B1868410706D507218E
:1022E00009023A688A43D96811433960000707D563
:1022F0000720C002396881431869C000084338606C
:1023000000F078F839680906090F2B4A515CC8407B
:102310003549086029480068FFF72CFE2FE009685E
:10232000490704E00968890101E009688905019805
:1023300025D5296803200190814311432960FFF7C7
:1023400053FB074660681B4C03282AD002281DD087
:1023500001280AD128680C210140042993D0FFF7F5
:1023600043FBC01BA042F5D908E028680007800F96
:1023700089D0FFF739FBC01BA042F6D9019803B002
:10238000F0BDFFF731FBC01BA042F7D828680C2135
:1023900001400829F5D176E7FFF726FBC01BA042D4
:1023A000ECD828680C2101400C29F5D16BE7C04618
:1023B0000020024088130000F83E000808000020BA
:1023C00009480068094909684905490F084A515CEC
:1023D000C840704704480068044909688904490FE7
:1023E000034A515CC8407047000000200C100240B6
:1023F000083F000810B5164AD1680807830F154832
:102400007B441B795B009F440108070D01200004F9
:1024100051680904490F884010BD1068C00610D5E6
:102420000E4810BD8B021B0F0B4CE35C0902890F99
:10243000491CD468E40307D41068C00603D40848D4
:1024400002E0074810BD05485843FEF729F810BDC3
:102450000010024000127A00103F000800093D0001
:102460000024F400F0B589B0002855D0F74EF1688B
:102470000C220A400692012105910904F768049193
:102480000F4007900078C00710D00698082806D0A3
:1024900006980C2800D0CBE0002F00D1C8E03068AF
:1024A000800303D50798406800284FD0079800782C
:1024B000800733D407980078C00649D4079800787D
:1024C000000761D407990878400700D590E00878A4
:1024D000800600D517E10798846A002C1AD0069868
:1024E0000C2800D060E1012C30D0F068049A024042
:1024F000079BD96A8A4229D10F21890401401A6BAE
:10250000914223D1032189050840596B88420598DF
:1025100000D088E1002086E1012084E1079BD86893
:10252000810604D531682022114331609043069919
:10253000042906D006990C2900D0A3E0002F00D072
:10254000A0E03168490734D5002832D105986AE106
:10255000012044020699002900D1A9E03168079AB8
:10256000D2690002002A00D1FDE001433160FFF78B
:102570003BFA05463068204200D004E1FFF734FA08
:10258000401B0228F6D94DE1306D079949690029B1
:1025900000D1D7E0012108433065FFF725FA054651
:1025A000306D80078ED4FFF71FFA401B0228F7D941
:1025B00038E11F21090272688A431969090211432F
:1025C000716031680922914301433160FFF712FFC6
:1025D000F1680906090FDF4A515CC840DE4908600E
:1025E000DE480068FFF7C6FC002800D01BE161E769
:1025F00001221107B06B0840029002D1B06B084372
:10260000B063019103921402D54F3868C00523D4FA
:10261000386820433860FFF7E7F9054638682042FC
:102620001AD1FFF7E1F9411B03206429F6D9FAE03A
:10263000079840680499884209D005210904884216
:1026400000D0D2E0059880043168014331603068E1
:10265000049908433060D7E007988068039A5702CE
:10266000002800D114E105210902884200D124E1AB
:10267000A04200D125E1306DA04330659102306D5C
:10268000884320E13168002800D1CEE0092291433F
:1026900001433160FFF7A8F905463068400700D5CF
:1026A000ECE0FFF7A1F9411B03200229F5D9BAE0BC
:1026B0003168214204D00799C969002900D1B2E0EC
:1026C0000720400371688143079B586A014371608A
:1026D000FF21090672688A43196A09068918716020
:1026E000400B04998140F0680006000F994A105C85
:1026F000C1409948016099480068FFF73BFC0028F9
:1027000000D090E0DAE6B06807998969002900D125
:102710009EE001210843B060706B0843706348037A
:1027200091490A6802430A60FFF75EF90546B068FE
:10273000800700D5CFE6FFF757F9411B0320022998
:10274000F5D970E0012188433065FFF74DF9054662
:10275000306D800700D4B5E6FFF746F9411B032032
:102760000229F5D95FE081433160FFF73DF9054665
:102770003068204200D1A1E6FFF736F9411B032063
:102780000229F5D94FE00720400371688143079A79
:10279000506A08437060FF20000671688143106A28
:1027A00000064018706089E60120010632688A43FD
:1027B00032604706FFF718F90546022C0AD1306847
:1027C000384200D1A8E0FFF70FF9411B032002298E
:1027D000F5D928E03068384200D19BE6FFF704F9CC
:1027E000411B03200229F5D91DE03168049A914369
:1027F000316031681140089108990599890432685F
:102800008A433260002877D005984404FFF7ECF83B
:1028100005463068204200D048E6FFF7E5F8401B47
:102820006428F6D9032009B0F0BD0120814331604E
:10283000FFF7DAF805463068400700D43AE6FFF7BC
:10284000D3F8411B03200229F5D9ECE70010024020
:1028500001218843B060480343490A6882430A6003
:10286000FFF7C2F80546B068800700D433E6FFF7EB
:10287000BBF8411B03200229F5D9D4E71F20000231
:10288000716881430798006900020843706011E68F
:10289000306DA04330659002316D81433165FFF7A3
:1028A000A3F805462F4C306D38421BD0FFF79CF83B
:1028B000411B0320A142F6D9B5E79002316D0143D7
:1028C0003165306D20433065FFF78EF80546254CA5
:1028D000306D384206D1FFF787F8411B0320A14233
:1028E000F6D9A0E702980028079900D0EFE5B06B71
:1028F000019A9043B063EAE505984404FFF774F841
:1029000005463068204200D1D0E5FFF76DF8411B45
:1029100003206429F5D986E7FD200004F16881438E
:10292000079B2C330DCB084310431843F060194824
:10293000401C316801433160FFF756F804463068A7
:10294000384200D0E6E5FFF74FF8011B03200229CB
:10295000F5D968E7F83E00080000002008000020D4
:10296000007000408813000020000140401E010E4E
:1029700001D0012070470749074A506007480368A3
:102980000B4003218907591801600020906007213E
:1029900011607047FFFFFF0010E000E020ED00E055
:1029A00010B53822825C012A01D1022010BD0246F6
:1029B000383202235370006843687024A3430C68C4
:1029C0001C4383684460434CA04205DC0124A407F7
:1029D000A04207D0424C03E03F4CA04202D03F4C03
:1029E000A04204D18024A343496819438160002098
:1029F00010700121517010BD70B500281BD0044625
:102A00000546383506463A366878002804D1002055
:102A10002870204600F012F80220687001CC214690
:102A200000F012FC0120307130707070B070F070E6
:102A30006870002070BD012070BD000010B50068F6
:102A40000D49884211D00D49884213D10C480168C4
:102A500010220A4302601124002120460A46FFF793
:102A6000C5FA2046FFF7B6FA10BD054801682022D6
:102A70000A43026010BDC046001400400010004030
:102A8000381002403921415C012910D10146393109
:102A900002220A700068C26801210A43C2600D4A1E
:102AA000904206DC8A07904209D00D4A05E00120D9
:102AB0007047094A904202D0084A904204D1826885
:102AC00007231340062B02D002680A43026000204D
:102AD0007047C046FF070140001401400008014054
:102AE000000400407047B0B504464020C54320684C
:102AF0000169890717D5C168890714D529463E3170
:102B00000161012121768069800703D02046FFF70B
:102B1000E9FF05E0204600F071F8204600F06FF86C
:102B20000020207620680169490718D5C168490747
:102B300015D529463C310161022121768069800545
:102B4000800F03D02046FFF7CDFF05E0204600F0C0
:102B500055F8204600F053F80020207620680169DF
:102B6000090717D5C168090714D52946383101610D
:102B700004212176C069800703D02046FFF7B2FF09
:102B800005E0204600F03AF8204600F038F8002032
:102B9000207620680169C90618D5C168C90615D50F
:102BA00029463031016108212176C0698005800FF6
:102BB00003D02046FFF796FF05E0204600F01EF800
:102BC000204600F01CF80020207620680169C90723
:102BD00009D0C168C90706D029463F3101612046A6
:102BE00000F00EF820680169490606D5C16849065B
:102BF00003D50561204600F0DBF8B0BD7047704793
:102C0000F0B583B05749884200D0A9E06420029013
:102C100006200190544C00945448A62132220123EE
:102C2000FFF726F8207861780902081850490880D3
:102C3000A178E278120257184E490F802179627903
:102C4000120255184C490D8000B2FDF742FD4B4E63
:102C50004B4B3246FDF748FDFDF7DCFC0446494886
:102C6000046038B2FDF735FD3246454BFDF73CFDBB
:102C7000FDF7D0FC07464448076028B2FDF729FD60
:102C800032463F4BFDF730FDFDF7C4FC05463F489B
:102C900005602046214600F0FDFF3D4E316800F002
:102CA000B3FF044630603846394600F0F3FF394F31
:102CB000396800F0A9FF38602846294600F0EAFF8D
:102CC000354E316800F0A0FF306034490878401C70
:102CD0000870C0B21E2843D1314D20462946FDF769
:102CE00051FE00F064FF2A4908600C463868294606
:102CF000FDF748FE00F05BFF386030682946FDF7BD
:102D000041FE00F054FF3060802000F093FD25A0CC
:102D100000F0DEFD206825460524214600F0BEFDBA
:102D2000892000F087FD20A000F0D2FD3868214600
:102D300000F0B4FDC42000F07DFD1CA000F0C8FD33
:102D40003068214600F0AAFD326839682C462868B0
:102D500000F0B8FE00203860286030600F4908702D
:102D600003B0F0BD20010020710000207800002099
:102D7000900200209C020020A8020020DE718A8EB2
:102D8000E4F27F3F98020020A4020020B00200205D
:102D900094020020A0020020AC020020700000205D
:102DA0000000F041583D0000593D00005A3D000030
:102DB0007047B0B500282ED00446C06F002805D15A
:102DC000782000212154204600F028F82420E067D4
:102DD000206801680125A9430160204600F05CFBE2
:102DE000012819D0606A002802D0204600F06CFA51
:102DF0000920C00221684A6882434A6088682A2202
:102E0000904388600868012202430A60204600F06F
:102E1000B7FA054600E001252846B0BD80B586B06A
:102E20000068104988421BD1012041040E4AD36832
:102E30000B43D36011680143116011680140009198
:102E400004200590032004900020039002200290AB
:102E50000C20019005200007009901A9FEF702FD52
:102E600006B080BD004400402C100240F0B585B093
:102E70000546C06F202825D10120002959D01646CB
:102E8000002A56D001200703AA68BA4204D1CA0713
:102E900002D02A69002A4CD0019103932C46503469
:102EA0000020029060632120E867FEF79DFD0490FA
:102EB00066802680A868B84202D12869002803D01D
:102EC000019F04E0022034E000270198029003995A
:102ED000608800281ED000918021002628463246B6
:102EE000049B00F0DBFB002820D1002F04D03878B1
:102EF000296888627F1C08E0029A10880E49084001
:102F000029688862921C0292374603996088401EA5
:102F10006080DDE70091402100222846049B00F0FC
:102F2000BDFB2021E967002802D102E02020E867EC
:102F3000032005B0F0BDC046FF010000FEE7000021
:102F4000F0B583B00D460446403002902068816998
:102F5000C90602D400210F463BE01021C1618169FE
:102F6000890632D416460120074680030190681C6A
:102F700006D0FEF739FD002D07D0801BA84204D8EB
:102F8000206881698906F2D51FE0206842680299AD
:102F9000897883691B040BD5019B1A4008D120292D
:102FA00006D04168019A11434160FEF71DFD0646B7
:102FB000206880698006E3D4FEF716FD801B19287F
:102FC000F6D920688169242103E02021C16101270D
:102FD000042101258269D30503D52B02C36129434E
:102FE0002F466B02560505D41A4209D1002F0AD18B
:102FF000002022E0AD02C561082529431A4202D013
:10300000C361022211438269920701D500228262C4
:103010008269D20703D18269012313438361426825
:10302000074B13404360606C0843606420200299A2
:103030004870002008708870012003B0F0BDC046C1
:1030400000E800FEF0B583B016460F46044601685E
:1030500088693840C01B424242410020B2422BD115
:103060001D46019020464030009008980290681C50
:103070000FD0FEF7B9FC2168002D03D0029A801A08
:10308000A84206D988693840C01B42424241B24238
:1030900008D088693840C01B42424241B242E6D063
:1030A000019809E0606C202108436064009A517027
:1030B000002010709070012003B0F0BDF0B583B017
:1030C0000446006880690027800626D415460E460F
:1030D0000297204640300190204631462A46FFF7AD
:1030E0002FFF0127002818D1FEF77EFC2168002E53
:1030F00002D0401BB04202D98869800604D5886995
:103100008006E9D5029F08E0606C202108436064D6
:10311000019A5170002010709070384603B0F0BDD5
:10312000F0B583B00446006880690027800729D481
:1031300015460E4602972046403001902046314603
:103140002A46FFF7FDFE012700281BD1701C0AD07C
:10315000FEF74AFC002E02D0401BB04203D9206883
:103160008069800705D5206880698007E6D5029FC1
:1031700008E0606C202108436064019A51700020CF
:1031800010709070384603B0F0BDFEE7704770478E
:1031900080B5FEF7D1FE80BD70B59EB010AC201D8D
:1031A00024252946FDF77AF901A8001D2946FDF7D7
:1031B00075F90326F0021E490A6882430120139024
:1031C000C302D2180A6000251B9502211A91102211
:1031D0001492109181051D9180041C902046FFF7E8
:1031E00041F9002803D0EFF3108072B6FEE70F9587
:1031F0000E950D950C960F200B900BA80121FFF753
:1032000013F8002803D0EFF3108072B6FEE708959C
:103210000795059585204000019001A8FEF702FF63
:10322000002803D0EFF3108072B6FEE71EB070BD29
:10323000007000407047000080B50248FFF753FC63
:1032400080BDC0462001002010B504681A4B98428A
:1032500005DC01229207904207D01A4A03E0174A80
:10326000904202D0164A904204D1702294434A6898
:10327000224300E02246984205DC01239B07984246
:1032800007D0104B03E00D4B984202D00C4B9842F4
:1032900005D103231B029A43CB68134300E0134676
:1032A000802293430A691A4302608A68C2620968ED
:1032B00081620121416110BDFF07014000140140FE
:1032C0000008014000040040B0B5416ACA0707D0B9
:1032D0000122520403685C689443826A22435A6064
:1032E0008A0707D50122120403685C689443C26A06
:1032F00022435A604A0707D50122920403685C689A
:103300009443026B22435A600A0707D50122D20375
:1033100003685C689443426B22435A60CA0607D52F
:103320000122120303689C689443826B22439A60D3
:103330008A0607D50122520303689C689443C26B36
:1033400022439A604A0610D5012213050268546888
:103350009C43056C2C4354609D4206D103235B05BE
:1033600054689C43436C23435360090607D50121ED
:10337000C904026853688B43806C18435060B0BD29
:10338000F0B583B00446064678360027F760FEF7AE
:103390002BFB03462068016809071CD526480090CE
:1033A000012002904105002220461D4600F076F9DA
:1033B00000280ED0EFF31080029981F31088216865
:1033C0000A6880239A430A6080F310882020E0670F
:1033D00026E020682B460068400723D51648009059
:1033E0000125A9050022204600F058F9002819D02F
:1033F000EFF3108085F310880921490122681368D2
:103400008B43136080F31088EFF3108085F31088EE
:1034100021688A68AA438A6080F310882020B060FF
:10342000032005E02020E067B06027666766384625
:10343000377003B0F0BDC046FFFFFF01B0B5EFF33A
:103440001082012181F3108809235B01046825683B
:103450009D43256082F31088EFF3108281F310887A
:1034600003689C688C439C6082F31088026E012A7A
:103470000AD1EFF3108281F3108801680B681024E1
:10348000A3430B6082F31088802120224250002148
:1034900081660166B0BD0000F0B581B004460168E8
:1034A00008686C4A0240A0682369034360691843B6
:1034B0001043E26910430860032630034B688343DE
:1034C000E06818434860A569634B994202D0206ABE
:1034D000284300E028460B252D028F68AF430743A1
:1034E0008F605E48814210DD00275D4881421DD01B
:1034F0005C4881421AD05C48814216D15C48C06C5D
:103500008007000F5CA52F5810E05848814205D075
:1035100099420AD15648C06C000A01E05448C06C78
:103520000C2505405348475900E010270125E803C2
:10353000994211D082421FD1082F00D980E0C046A5
:103540007F443F797F00BF440430367B3C7B7B7BEC
:103550004000FEF735FF36E0082F00D970E0C04686
:103560007F443F797F00BF44046B156B1B6B6B6B13
:103570005400FEF725FF15E0082F61D87F443F79FE
:103580007F00BF440415325D385D5D5D3C00FEF791
:1035900017FF32E036480068C00639D53B4838E0AE
:1035A000FEF728FF002834D149E0FEF713FF0AE0B8
:1035B000FEF710FF21E02E480068C00646D53348CC
:1035C00003E0FEF717FF002839D0400061684A0881
:1035D0001018FCF765FF0246103A2D498A422FD297
:1035E00001400007400F084327E021480068C0065B
:1035F0002ED5264803E0FEF7FDFE00281FD06168A7
:103600004A081018FCF74CFF01461039204A12E016
:103610001D4862685643B04212D3110388420FD846
:10362000010E56080002002380195941FCF7C6FD1F
:1036300018494118184A914202D22168C8600025F1
:103640000020A066E066284601B0F0BD0E48BCE749
:103650000D48D4E7F369FFEF00480040FF4B0040FE
:10366000004C004000500040003801400044004041
:10367000001002401C3F0008010000000400000090
:1036800002000000080000000024F40000093D00D2
:10369000F0FF000000FDFFFF00FD0F00F0B585B05A
:1036A0000668F4690C40651A6C426C41002594422E
:1036B0003CD1174603930346783301930A9B049346
:1036C00001230093DB020293049B5B1C18D00C4681
:1036D0000646FEF789F90323049A002A27D00399A6
:1036E000401A904223D8304636683168490706D5DB
:1036F000F16909070CD4F169029B19420CD12146EA
:10370000F3690B405C1A63426341BB42DCD00DE0BD
:1037100008210C46009D02E0194603252024316251
:10372000FFF78CFE002001990870CC602B461846EC
:1037300005B0F0BDF0B587B0642402940620019076
:1037400016480090D448A625002701230393294654
:103750003A46FEF78DFA04AA57702D26167000948B
:103760000227CD4829463B46FEF7D8F905AA08208E
:10377000507016700094C848064629463B46FEF72E
:10378000CDF906AA0398507031201070009430468D
:1037900029463B46FEF7C2F907B0F0BD7100002094
:1037A000F0B589B008AA2824D4702C279770082077
:1037B000079050700C200690107064200090054611
:1037C000BB484E260423029331460396FEF7A6F922
:1037D00008AA88200590D0708C20049090705470B6
:1037E000177000952C460195B1483146029E33462C
:1037F000FEF794F908AAC820D070CC209070079FDB
:103800005770069D15700094A948039C21463346C5
:10381000FEF784F908AAD77095700598507004983F
:10382000107001980090A24821463346FEF776F9C1
:1038300009B0F0BD80B582B001010B46083301AA82
:10384000D3700C319170F02101400846083050705F
:103850000C3111706420009095484E210423FEF72E
:103860005DF902B080BDC04680B582B001010B4653
:10387000093301AAD3700D319170F021014008463F
:10388000093050700D3111706420009088484E212D
:103890000423FEF743F902B080BDC046B0B586B040
:1038A0000C46FDF745F80090019103A8082107A2F6
:1038B000FCF70CFD012C06DB03AD2878FFF7D4FFE5
:1038C0006D1C641EF9D106B0B0BDC046256600006F
:1038D00010B50178002908D0441CC8B2FFF7C4FF16
:1038E000601C217800290446F7D110BD82B0FEF794
:1038F0002DFBFFF751FC67480168802211430160EE
:103900000168114000910099016801252943016077
:103910000168294000910099016804221143016067
:103920000168114000910099016802221143016071
:103930000068104000900098574C0020574F58499D
:1039400082C420606560083C204610301421FCF7DA
:10395000A5FD2046FEF790F8002803D0EFF3108075
:1039600072B6FEE74C480021FEF744F8002803D069
:10397000EFF3108072B6FEE7474800242146FEF7B9
:103980005AF8002803D0EFF3108072B6FEE74548DE
:1039900044615021444B454A1CC00160019400948D
:1039A0000C38FFF729F8002803D0EFF3108072B627
:1039B000FEE73C486946FEF7F3FF002803D0EFF32B
:1039C000108072B6FEE73A4E3A4881C634607560A0
:1039D000083E3046103014252946FCF75FFD30467E
:1039E000FEF74AF8002803D0EFF3108072B6FEE726
:1039F0002F480021FDF7FEFF00282B4E03D0EFF3E8
:103A0000108072B6FEE72A4800242146FEF713F81C
:103A1000002803D0EFF3108072B6FEE72648446119
:103A2000264942C004604560019400940838FEF7BE
:103A3000E3FF002803D0EFF3108072B6FEE71E48C4
:103A40006946FEF7ADFF002803D0EFF3108072B691
:103A5000FEE73B480C211A4A04624462E1235B0200
:103A60001CC0046044608160C46004610C38FFF7CE
:103A7000A0F9002803D0EFF3108072B6FEE7FFF73D
:103A800059FEFFF78DFE0748FEF7FCFF0A48FEF7D8
:103A9000F9FFFEE72C10024078000020380F3000BC
:103AA0000054004020010020409C00000010004015
:103AB000CC0000200078004060010020001400408D
:103AC00000440040F0B587B006920D46FCF730FF89
:103AD00006460F462846FCF72BFF05460C4606987F
:103AE000FCF726FF00960197029503940490059138
:103AF000084D642408A228462146FCF7E7FB284627
:103B0000FCF78CFC82B20E4829462346FFF7AEF93B
:103B100007B0F0BD28020020585F524D533A2025CF
:103B20002E32662C20595F524D533A20252E326694
:103B30002C205A5F524D533A20252E32660D0A0032
:103B4000A0010020F8B5040C8BB2264682B25E4379
:103B5000104658430D0C370C3604002180191646C8
:103B600079416E43370C36048019264679416E43FD
:103B70008919F8BD4900CA020243100000D0042090
:103B80004A0D01D001221043044A490D914201D14E
:103B900002210843012800D105207047FF070000DB
:103BA00030380A2801D2012070470020704770B5D4
:103BB0000546FDF7CDF941000446FF204908C00540
:103BC000411AC90F07D069004908401AC00F02D135
:103BD0000120FCF78CFF204670BD000010B50029C5
:103BE0000AD00878002807D005487844FDF7EEFD94
:103BF000002801D0002010BD0248784410BD00000C
:103C0000620300005A03000070B50125ED070400AF
:103C10004C4020D4441A01D2001B0919C60D4B0098
:103C2000F2B2FF2A29D01B0E2CD000020C0228432E
:103C30002C43D31ADC40051910D2280A02D3401CA9
:103C40006D0611D0761EF6058019FF2A00DA70BDC8
:103C5000C00DC00570BD694000F07AF80120054331
:103C6000C541521C761CE8E764089C40C9016140CC
:103C70008900E7D10124A043E4E71B0E440200D0F1
:103C8000034870BD002AFCD1C00FC00770BD00BF43
:103C90000000C07F70B5420064414B005C41120ED1
:103CA00039D01B0E38D0FF2A3CD0FF2B3AD0D21887
:103CB0007F3A40024902400A490A4518ED010600D0
:103CC0004E43000A090A48430104731A4019190CAB
:103CD0004318990F04D05B08012149075B1A521C55
:103CE000D80904D3401CF50301D19D0607D0FF2A53
:103CF00008D2D50506D0E4072043401970BD012540
:103D0000A843F4E7002A01DCE00770BD2402FF208D
:103D10002043C00570BD1B0EFF2A03D0FF2B01D02E
:103D2000E00770BDFF2636064500B54206D84D00B7
:103D3000B54203D8D218FF2A00D0E7E7004870BD8B
:103D40000000C07F70B50125ED0704004C4022D46F
:103D5000441A02D26C40001B0919C60D4B00F2B286
:103D6000FF2A4BD01B0E50D000020C02A8432C435C
:103D7000D31ADC40051B05D5AD0019D36D08761E9E
:103D8000521E37D0F605280A01D2801970BD704145
:103D90006D0603D070BD6940FFF73CFF9C400902EF
:103DA0006140490001D0401E70BD0124A04370BD98
:103DB0006D081DD001202B0C01D12D0410302B0ECD
:103DC00001D12D0208302B0F01D12D01001DAB0FA9
:103DD00001D1AD00801CEB0F01D16D00401C361AE3
:103DE000121A6D00680AF5054019012A02DB70BD40
:103DF000002070BDC036300AC00770BD1B0E4402E3
:103E000001D1FF2B00D1024870BD002AF0D070BD57
:103E10000000C07F03B402487844844603BC604776
:103E20007DCEFFFF8182838485868788898B8C8DF8
:103E30008E8F919293959697999A9C9D9FA0A2A3FD
:103E4000A5A7A8AAACAEB0B2B3B5B7B9BCBEC0C244
:103E5000C5C7C9CCCED1D4D7D9DCDFE2E6E9ECF0D6
:103E6000F3F7FAFE02400000000000A0000000008E
:103E700005400000000000C8000000000C400000E9
:103E80000000409C00000000194000000020BCBE63
:103E90000000000034400000BFC91B8E0000000479
:103EA000B5400000504BCFD06607E2CF01000000C4
:103EB0006C4100003E8251AADFEEA73401000000F1
:103EC000D9420000DCB5A0E23A301F97FFFFFFFFA8
:103ED000B4450000FD25A0C8E9A3C14FFFFFFFFFC7
:103EE000FF3F00000000008000000000FF3F0000D6
:103EF0000000008000000000000000000000000042
:103F0000010203040607080900000000010203047F
:103F1000030406080C101820300000000000000008
:103F2000040000000200000008000000683F0008D4
:103F3000000000201000000004010008783F000885
:103F400010000020A8080000200100081C0000004C
:103F500043000000F8FFFFFF0C0000000E0000000F
:103F60000F0000002E0000000000200001000000F3
:083F7000040000000000000045
:04000005080000C12E
:00000001FF
